:020000040800F2
:10000000B02C0020AD010008CD3E0008CF3E000816
:10001000D33E0008D73E0008DB3E00080000000089
:10002000000000000000000000000000DF3E0008AB
:10003000E13E000800000000E33E0008E73E000843
:10004000C7010008C7010008C7010008C701000870
:10005000C7010008C7010008C7010008C701000860
:10006000C7010008C7010008C7010008C701000850
:10007000C7010008C7010008C7010008C701000840
:10008000C7010008C7010008C70100080000000000
:10009000000000000000000000000000C701000890
:1000A000C7010008C7010008C7010008C701000810
:1000B000C7010008C7010008C7010008C701000800
:1000C000C7010008C7010008C7010008C7010008F0
:1000D000C70100086F3800088F38000800000000D2
:1000E000C7010008C7010008C701000800000000A0
:1000F000000000000000000000000000C701000830
:1001000000000000C7010008C7010008C70100087F
:1001100000000000000000000000000000000000DF
:10012000C7010008C7010008C7010008C70100088F
:10013000C7010008000000000000000000000000EF
:10014000000000000000000000000000C7010008DF
:10015000C7010008C7010008C7010008B33800083C
:10016000C7010008C70100080000000000000000EF
:10017000000000000000000000000000000000007F
:1001800000000000C701000800000000000000009F
:10019000C7010008C7010008DFF80CD006F0FAFE1E
:1001A00000480047F1380008B02C0020064880477E
:1001B00006480047FEE7FEE7FEE7FEE7FEE7FEE74C
:1001C000FEE7FEE7FEE7FEE7F13E000899010008C2
:1001D000704770B5044601F027FB4FF47A71B0FB0D
:1001E000F1F5284600F05AF900222146501E00F091
:1001F000DFF8002070BD10B55748006840F400706B
:10020000554908600846006840F480600860084668
:10021000006840F480700860032000F0B7F80F20F9
:10022000FFF7D7FFFFF7D4FF002010BD704710B5D0
:100230004FF0FF304949086000200860401E091D4A
:10024000086000200860401E444910390860002002
:100250000860401E091D086000200860401E091D3E
:10026000086000200860FFF7E1FF002010BD3C4857
:100270000068401C3A490860704739480068704778
:1002800031B5002402F06CFE044600BF02F068FEA7
:10029000001B00998842F9D338BD4FF0E020006977
:1002A00020F002004FF0E021086170474FF0E0209D
:1002B000006940F002004FF0E021086170474FF004
:1002C0008270704727480068000C70472548006816
:1002D000C0F30B0070472348406840F001002149FB
:1002E000486070471F48406820F001001D49486081
:1002F00070471C48406840F002001A494860704747
:100300001848406820F002001649486070471548B8
:10031000406840F004001349486070471148406845
:1003200020F004000F4948607047012090FAA0F1C6
:10033000B1FA81F10C4A02EB8101C1F80004704767
:100340000020012191FAA1F1B1FA81F1064A02EBF4
:100350008101C1F800047047003C0240203802408F
:1003600000000020002004E00000274210B5002813
:1003700007DA0A07140EBF4A00F00F031B1FD454FC
:1003800003E00A07130EBC4A135410BD00BF00F06F
:100390000702B84B0C3B19684FF6FF031940B74BE7
:1003A0000B4343EA0221B34B0C3B196000BF70477B
:1003B0002DE9F05F80460D461646002700F054F9FF
:1003C000074639462A46334601F00700C0F1070ABE
:1003D000BAF1040F02D94FF0040A01E0C0F1070A94
:1003E000D14600F1040ABAF1070F02D24FF0000A19
:1003F00001E0A0F1030AD4464FF0010A0AFA09FA13
:10040000AAF1010A0AEA020A0AFA0CFA4FF0010BF1
:100410000BFA0CFBABF1010B0BEA030B4AEA0B04E2
:1004200021464046FFF7A2FFBDE8F09F00BF00F065
:100430001F02012191404209920002F1E022C2F81C
:10044000001100BF704700BF00F01F020121914062
:100450008B4A430942F8231000BF704700BF00BF1A
:1004600000BF00BF00BFBFF34F8F00BF00BF00BF82
:1004700080480C38006800F4E06080490843001DA3
:100480007C490C39086000BF00BF00BFBFF34F8F2D
:1004900000BF00BF00BF00E000BFFDE770B504462D
:1004A0002546681EB0F1807F01D301200FE0681E51
:1004B0004FF0E02148610F214FF0FF30FFF756FF6A
:1004C00000204FF0E021886107200861002070BD06
:1004D0004178684A803211600178F9B1121D416893
:1004E0001160017B0907C27A41EA0261827A41EA1E
:1004F000C241427B41EA8241827B41EA4241C27B66
:1005000041EA0241427A41EA0221027A41EA420189
:1005100002781143574A8832116005E00021554A9C
:1005200084321160121D1160704710B500F09CF804
:1005300010BD2DE9F04304462046002808DA4D4F4F
:1005400000F00F0CACF1040C17F80C703F0902E03E
:10055000494F3F5C3F093D460E4606F00700C0F19B
:100560000708B8F1040F02D94FF0040801E0C0F108
:100570000708C44600F10408B8F1070F02D24FF093
:10058000000801E0A0F10308474625FA07F84FF0FC
:10059000010909FA0CF9A9F1010908EA0908C2F8E8
:1005A00000804FF0010808FA07F8A8F1010808EAEE
:1005B0000508C3F8008000BFBDE8F08300BF00F06D
:1005C0001F02012191402E4A8032430942F8231034
:1005D00000BF704710B501460846294A80324309DA
:1005E00052F8232000F01F040123A3401A400AB14F
:1005F000012200E00022104610BD00BF00F01F02E3
:10060000012191401F4A430942F8231000BF70475F
:1006100010B5014608461B4A8032430952F8232090
:1006200000F01F040123A3401A400AB1012200E098
:100630000022104610BD042808D14FF0E0210969BE
:1006400041F004014FF0E022116107E04FF0E0219A
:10065000096921F004014FF0E022116170477047F1
:1006600010B5FFF7FCFF10BD02480C380068C0F35E
:100670000220704718ED00E000E400E00000FA05F9
:1006800080E100E080E200E001460878103818239D
:10069000B0FBF3F2F648805C4865032A05D9086888
:1006A0006FF30900001D086503E008686FF3090097
:1006B0000865086D704770B5044600250CB9012027
:1006C00070BD606A00B100BF022084F83500206868
:1006D0000568E8480540D4E901010843E16808439A
:1006E0002169084361690843A1690843E169084336
:1006F000216A08430543606A042803D1D4E90B0149
:1007000008430543206805602068456925F0070512
:10071000606A0543606A042801D1A06A0543206825
:1007200045612046FFF7B0FF0020E064012084F817
:1007300035000020C4E770B504460CB9012070BD37
:1007400094F83500022801D10120F8E720680068FC
:1007500020F00100216808600020216808602168FD
:100760004860216888602168C8602168086121208C
:10077000216848612046FFF787FF054694F854102A
:100780003F208840A8600020E06484F8350000BF66
:1007900084F8340000BF00BFD1E730B50468246896
:1007A00024F4802405682C60046863608468402C0D
:1007B00004D10468A2600468E16003E00468A160F9
:1007C0000468E26030BD2DE9F04104460D4616464E
:1007D0001F4600BF94F83400012802D10220BDE872
:1007E000F081012084F8340000BF022084F8350035
:1007F0002068006820F00100216808603B4632460E
:1008000029462046FFF7C9FF2068006840F0010034
:10081000216808600020E2E72DE9F04104460D461A
:1008200016461F4600BF94F83400012802D102206A
:10083000BDE8F081012084F8340000BF022084F874
:1008400035002068006820F00100216808603B4600
:10085000324629462046FFF7A0FF2068006840F096
:100860001E00216808602068406940F0800021680F
:1008700048612068006840F001002168086000209D
:10088000D6E770B5044600252068006820F0010016
:100890002168086002F064FB054612E002F060FB8C
:1008A000401BB0F57A7F0CD9E06C40F02000E0648A
:1008B00000BF002084F8340000BF032084F8350016
:1008C00070BD2068006800F001000028E6D100BF7C
:1008D00084F8340000BF012084F835000020EFE7E1
:1008E0002DE9F84F04460F46164600200090256D6E
:1008F0002FB994F85410202000FA01F804E094F87D
:100900005410102000FA01F802F02AFB009064E075
:10091000286814F8542F0821914000EA010928683A
:1009200022785549914000EA010A286814F85429B0
:100930005149C91C914000EA010BB9F1000F05D1E2
:10094000BAF1000F02D1BBF1000F2FD0B9F1000FA7
:1009500008D0E06C40F00100E06494F854100820E6
:100960008840A860BAF1000F08D0E06C40F00200A7
:10097000E06494F8541040488840A860BBF1000F30
:1009800009D0E06C40F00400E06494F854103A4858
:10099000C01C8840A860042084F8350000BF0020F7
:1009A00084F8340000BF0120BDE8F88F701CA0B1AE
:1009B0002EB102F0D5FA0099401AB0420DD9E06C80
:1009C00040F02000E064032084F8350000BF0020E0
:1009D00084F8340000BF0320E6E7286800EA080036
:1009E000002895D01FBB94F8541030208840A86090
:1009F0002068006800F4802088B12068006800F456
:100A0000002018B9112084F835000BE02068006838
:100A100000F4002030B1212084F8350002E01120DC
:100A200084F8350000BF002084F834001EE094F8FC
:100A3000541010208840A8602068006800F48020CE
:100A400088B12068006800F4002018B9312084F8CB
:100A500035000BE02068006800F4002030B1412030
:100A600084F8350002E0312084F8350000209BE74F
:100A7000887500083F8010F00100800070B50446C2
:100A8000256D286894F8542008219140084000B34F
:100A90002068006800F00400D8B12068006820F0E9
:100AA00004002168086094F8541008208840A86069
:100AB000E06C40F00100E064042084F8350000BFE1
:100AC000002084F8340000BFA06C10B12046A16C57
:100AD0008847286894F8542070499140084000B332
:100AE0002068406900F08000D8B12068406920F09B
:100AF00080002168486194F8541068488840A860D4
:100B0000E06C40F00200E064042084F8350000BF8F
:100B1000002084F8340000BFA06C10B12046A16C06
:100B20008847286894F854205C49C91C91400840C3
:100B300008B32068006800F00200E0B12068006897
:100B400020F002002168086094F854105348C01C3B
:100B50008840A860E06C40F00400E064042084F861
:100B6000350000BF002084F8340000BFA06C10B135
:100B70002046A16C8847286894F8542010219140A1
:100B80000840C0B32068006800F0080098B32068EF
:100B9000006800F48020B0B194F854101020884010
:100BA000A8602068006800F4002018B9312084F89B
:100BB00035001BE02068006800F40020B0B141203F
:100BC00084F8350012E02068006800F4807028B9CD
:100BD0002068006820F008002168086094F854102C
:100BE00010208840A860312084F83500206C10B1B6
:100BF0002046216C8847286894F854202021914091
:100C0000084018B32068006800F01000F0B12068B8
:100C1000006800F48020D0B194F85410202088405F
:100C2000A8602068006800F4002028B9606C68B1F2
:100C30002046616C884729E02068006800F40020A5
:100C400020B1E06B10B12046E16B88471EE02068C0
:100C5000006800F4807028B92068006820F0100057
:100C60002168086094F8541020208840A860E06C47
:100C7000E064112084F8350000BF002084F83400BF
:100C800000BFE06B10B12046E16B884770BD0146A4
:100C900091F8350070470146C86C7047010080002C
:100CA000F8B503460A460025002400200021CBE0C9
:100CB000012606FA01F5166806EA0504AC4271D170
:100CC0005668022E02D05668122E13D1CF0803F1B7
:100CD000200656F827004E07F70E0F26BE40B043F9
:100CE0004F07FF0E1669BE403043CF0803F12006C0
:100CF00046F8270018684F000326BE40B043167917
:100D000006F003064F00BE40304318605668012EBF
:100D100008D05668022E05D05668112E02D05668AB
:100D2000122E13D198684F000326BE40B0434F00E7
:100D3000D668BE4030439860586801268E40B04364
:100D40001679C6F300168E4030435860D8684F00BD
:100D50000326BE40B0434F009668BE403043D86083
:100D6000566806F08056B6F1805F6CD100BF9B4E8E
:100D7000366846F48046994F3E603E46366806F433
:100D80008046009600BF00BF954E8F0856F827009A
:100D90008E07370F0F26BE40B043924EB34202D1AA
:100DA000002615E04FE0904EB34201D101260FE03E
:100DB0008E4EB34201D102260AE08D4EB34201D1DC
:100DC000032605E08B4EB34201D1042600E0052640
:100DD0008F073F0FBE403043814E8F0846F82700F3
:100DE000854E3068A043566806F48036B6F5803FDD
:100DF00000D12043804E3060361D3068A0435668D5
:100E000006F40036B6F5003F00D120437A4E361D79
:100E10003060361D3068A043566806F48016B6F57B
:100E2000801F00D12043744E08363060361D306874
:100E3000A043566806F40016B6F5001F00D1204303
:100E40006D4E0C363060491C1029FFF431AFF8BDEF
:100E5000F0B50C46002500220023002181E0012688
:100E600006FA01F504EA0502AA4279D106684FEABA
:100E7000410C032707FA0CF7BE430660CF0800F1C8
:100E8000200656F827604F074FEAD76C0F2707FA5E
:100E90000CF7BE434FEAD10C00F1200747F82C6055
:100EA00086684FEA410C032707FA0CF7BE438660B9
:100EB000476801268E40B7434760C6684FEA410C39
:100EC000032707FA0CF7BE43C660454E8F0856F855
:100ED00027308E07370F0F26BE403340414EB042B9
:100EE00001D1002614E0404EB04201D101260FE0AE
:100EF0003E4EB04201D102260AE03D4EB04201D141
:100F0000032605E03B4EB04201D1042600E0052651
:100F10008F073F0FBE409E4222D18E07370F0F260C
:100F200006FA07F32E4E8F0856F827609E432C4F83
:100F30004FEA910C47F82C602F4E366896432E4F9F
:100F40003E603E1D366896433F1D3E603E1D36683E
:100F500096433F1D3E603E1D366896433F1D3E60F2
:100F6000491C1029FFF47BAFF0BD024613690B400A
:100F70000BB1012000E0002070470AB1816101E05F
:100F80000B048361704742694A404261704708B56B
:100F900002464FF48030009000980843009000987B
:100FA000D061D1610098D061D0690090D06900F41F
:100FB000803008B1002008BD0120FCE7704710B563
:100FC00004460D4814300068204028B10A48143007
:100FD00004602046FFF7F2FF10BD000044380240D5
:100FE00008380140000002400004024000080240AE
:100FF000000C024000100240003C0140704738B530
:1010000004460025207800F00100002866D0F6484C
:10101000006800F00C0004280DD0F348006800F0D0
:101020000C00082813D1F048001F006800F480006D
:10103000B0F5800F0BD1EC4808380068C0F3404091
:1010400000284BD06068002848D1012038BD00201E
:10105000E549891F087001F083FF054608E001F0AB
:101060007FFF401B41F28831884201D90320EDE720
:10107000DD4808380068C0F340400028EFD12079EF
:10108000D949891F08706068A0B101F069FF054661
:1010900008E001F065FF401B41F28831884201D928
:1010A0000320D3E7D04808380068C0F34040002848
:1010B000EFD013E001F054FF054608E001F050FFC7
:1010C000401B41F28831884201D90320BEE7C6485F
:1010D00008380068C0F340400028EFD1207800F0C5
:1010E0000200022869D1C048006800F00C0058B125
:1010F000BD48006800F00C00082821D1BA48001F44
:10110000006800F48000D8B9B74808380068C0F318
:10111000400020B1E068012801D0012096E7B248E4
:101120000838006820F0F800F82292FAA2F2B2FA29
:1011300082F2216991400843AB49083908603CE0DC
:10114000E06828B30120A949086001F009FF0546BD
:1011500006E001F005FF401B642801D9032075E774
:10116000A14808380068C0F340000028F1D09E482C
:101170000838006820F0F800F82292FAA2F2B2FAD9
:1011800082F221699140084397490839086014E0C8
:1011900000209649086001F0E3FE054606E001F0F4
:1011A000DFFE401B642801D903204FE78E48083832
:1011B0000068C0F340000028F1D1207800F008005A
:1011C00008282CD16069A8B101208949086001F084
:1011D000C7FE054606E001F0C3FE401B642801D9A6
:1011E000032033E780486C300068C0F340000028DB
:1011F000F1D014E000207E49086001F0B1FE054600
:1012000006E001F0ADFE401B642801D903201DE774
:1012100075486C300068C0F340000028F1D1207898
:1012200000F0040004286DD100BF6F48383000681A
:1012300040F080506C49383108600846006800F082
:101240008050009000BF00BF6A48006840F4807082
:101250006849086001F084FE054606E001F080FE62
:10126000401B642801D90320F0E66248006800F4BE
:1012700080700028F2D000205B496831087001F0CE
:101280006FFE054608E001F06BFE401B41F288311D
:10129000884201D90320D9E6534868300068C0F37A
:1012A00040000028EFD1207A4F4968310870A068CB
:1012B000A0B101F055FE054608E001F051FE401BCB
:1012C00041F28831884201D90320BFE646486830A0
:1012D0000068C0F340000028EFD013E001F040FEAA
:1012E000054608E001F03CFE401B41F2883188428F
:1012F00001D90320AAE63C4868300068C0F34000EA
:101300000028EFD1A069E8B33748006800F00C006E
:10131000082872D0A069022850D1002033490866FD
:1013200001F01EFE054606E001F01AFE401B64288F
:1013300001D903208AE62C4808380068C0F34060D1
:101340000028F1D1D4E90701084347F6C07292FAA8
:10135000A2F2B2FA82F2616A914008430122A16AC4
:10136000C2EB51014FF4403292FAA2F2B2FA82F289
:10137000914008434FF0706292FAA2F2B2FA82F200
:10138000E16A00E03BE0914008431749091F08600B
:1013900001201649086601F0E3FD054606E001F06C
:1013A000DFFD401B642801D903204FE60E480838B2
:1013B0000068C0F340600028F1D020E000200B4915
:1013C000086601F0CDFD054606E001F0C9FD401BB1
:1013D000642801D9032039E6034808380068C0F3BF
:1013E00040600028F1D10AE008380240000047427E
:1013F000800E474200700040FFE7012026E60020F3
:1014000024E670B504460E460025FE48006800F04C
:101410000F00B0426FD2FB490E700846006800F022
:101420000F00B04201D0012070BD207800F0020012
:10143000022807D1F448006820F0F000A1680843B2
:10144000F1490860207800F0010000283ED0606873
:10145000012807D1EC4808380068C0F34040B8B90B
:101460000120E1E76068022802D06068032807D104
:10147000E54808380068C0F3406048B90120D3E768
:10148000E14808380068C0F3400008B90120CBE704
:10149000DD48006820F0030061680843DA4908600D
:1014A00001F05EFD05466068012810D108E001F0FA
:1014B00057FD401B41F28831884201D90320B3E730
:1014C000D148006800F00C000428F0D1CDE060683D
:1014D000022811D108E001F043FD401B41F28831A0
:1014E000884201D903209FE7C748006800F00C003C
:1014F0000828F0D1B9E024E06068032810D108E0A2
:1015000001F02EFD401B41F28831884201D90320B1
:101510008AE7BD48006800F00C000328F0D1A4E081
:1015200008E001F01DFD401B41F28831884201D9DD
:10153000032079E7B448006800F00C000028F0D1DF
:1015400093E0207800F00200022807D1AE4800683E
:1015500020F0F000A1680843AB490860207800F053
:101560000100002877D06068012807D1A648083814
:101570000068C0F34040B8B9012055E76068022810
:1015800002D06068032807D19F4808380068C0F37C
:10159000406048B9012047E79B4808380068C0F31D
:1015A000400008B901203FE79748006820F0030099
:1015B000616808439449086001F0D2FC0546606800
:1015C000012810D108E001F0CBFC401B41F288312A
:1015D000884201D9032027E78B48006800F00C00FF
:1015E0000428F0D137E06068022810D108E001F04B
:1015F000B7FC401B41F28831884201D9032013E730
:101600008148006800F00C000828F0D123E06068F1
:10161000032810D108E001F0A3FC401B41F28831FF
:10162000884201D90320FFE67748006800F00C00EB
:101630000328F0D10FE008E001F092FC401B41F2DA
:101640008831884201D90320EEE66F48006800F037
:101650000C000028F0D16B490E700846006800F0BD
:101660000F00B04201D00120DEE6207800F0040037
:10167000042807D16448006820F4E050E16808437A
:1016800061490860207800F00800082808D15E4809
:10169000006820F46040216940EAC1005A490860AE
:1016A0000F20FEF796FD0020BEE670B586B0064618
:1016B0000C46154636BB00BF53482830006840F042
:1016C00001005149283108600846006800F0010017
:1016D000009000BF00BF88150190022002900320F7
:1016E000049000200390059001A94848FFF7D8FA1C
:1016F0004548006820F0EC6044EA0501084342498F
:10170000086025E000BF40482830006840F0040031
:101710003D49283108600846006800F00400009048
:1017200000BF00BF481501900220029003200490E2
:1017300000200390059001A93548FFF7B1FA32481F
:10174000006820F0784044EAC50108432E4908604B
:1017500006B070BD01202F49C864704700202D4994
:10176000C864704770B50021002200230020264C79
:10177000246804F00C0424B1042C04D0082C4FD1AC
:1017800003E025484EE025484CE01F4C241F246808
:1017900004F03F011C4C241F246804F4800484B12D
:1017A0001E4CB4FBF1F5184C241F246847F6C07694
:1017B000344096FAA6F6B6FA86F6F44005FB04F233
:1017C0000FE0154CB4FBF1F50F4C241F246847F6CD
:1017D000C076344096FAA6F6B6FA86F6F44005FBD3
:1017E00004F2094C241F246804F440344FF44035BB
:1017F00095FAA5F5B5FA85F5EC40641C6300B2FBDB
:10180000F3F00FE0003C02400838024000000240C4
:1018100000080240000047420024F40000127A0051
:101820007E4800BF00BF70BD10B5FFF79BFF7C492D
:10183000096801F0F001F02292FAA2F2B2FA82F203
:10184000D140784A515CC840774908600846006832
:1018500010BD10B5FFF7E8FF7149096801F4E051C8
:101860004FF4E05292FAA2F2B2FA82F2D1406D4AFB
:10187000515CC84010BD10B5FFF7D6FF6849096834
:1018800001F460414FF4604292FAA2F2B2FA82F29D
:10189000D140644A515CC84010BD0F2101606049CD
:1018A0000839096801F48021B1F5802F02D10521A2
:1018B00041600CE05A490839096801F48031B1F5FA
:1018C000803F02D10121416001E000214160544983
:1018D0000839096801F0010111B10121C16001E07D
:1018E0000021C1604E490839096801F0F801F82269
:1018F00092FAA2F2B2FA82F2D1400161484968310B
:10190000096801F00401042902D1052181600AE07F
:1019100043496831096801F0010111B10121816079
:1019200001E0002181603E496C31096801F001014C
:1019300011B10121416101E00021416138490839BB
:10194000096801F08071B1F1807F02D102218161CB
:1019500001E0012181613249091F096801F4800217
:10196000C2612F49091F096801F03F0202622C4938
:10197000091F096847F6C072114092FAA2F2B2FA42
:1019800082F2D14041622649091F096801F44031C1
:1019900001F5803149004FF4403292FAA2F2B2FAD6
:1019A00082F2D14081621E49091F096801F070610D
:1019B0004FF0706292FAA2F2B2FA82F2D140C162A2
:1019C00070470F220260164A126802F0030242605A
:1019D000134A126802F0F0028260114A126802F49F
:1019E000E052C2600E4A126802F46042D2080261FC
:1019F0000E4A126802F00F020A607047704710B575
:101A00000748001D006800F08000802805D1FFF71E
:101A1000F5FF80200249891D087010BD0024F400E4
:101A2000083802409075000850000020003C024039
:101A30002DE9F041044600252068056925F440554C
:101A4000E0680543206805612068C56849F20C60BC
:101A500085432169A068084361690843E169084337
:101A600005432068C5602068456925F44075A06974
:101A7000054320684561E069B0F5004F72D1FE4929
:101A80002068884203D0FD492068884234D1FFF79E
:101A9000F2FE00EBC00101EB001061684900B0FBF1
:101AA000F1F06421B0FBF1F6FFF7E5FE00EBC001B9
:101AB00001EB001061684900B0FBF1F7FFF7DBFEB6
:101AC00000EBC00101EB001061684900B0FBF1F0D0
:101AD0006421B0FBF1F000EBC00101EB0010A7EBBB
:101AE0008000322101EB00106421B0FBF1F066F3BD
:101AF0001F1021688860A6E0FFF7ABFE00EBC00175
:101B000001EB001061684900B0FBF1F06421B0FB0B
:101B1000F1F6FFF79EFE00EBC00101EB00106168DB
:101B20004900B0FBF1F7FFF794FE00EBC00101EBB9
:101B3000001061684900B0FBF1F06421B0FBF1F0E6
:101B400000EBC00101EB0010A7EB8000322101EB9C
:101B500000106421B0FBF1F066F31F10216888606B
:101B600071E0FFE7C4492068884203D0C349206878
:101B7000884234D1FFF77FFE00EBC00101EB00107B
:101B800061688900B0FBF1F06421B0FBF1F6FFF76A
:101B900072FE00EBC00101EB001061688900B0FB30
:101BA000F1F7FFF768FE00EBC00101EB0010616880
:101BB0008900B0FBF1F06421B0FBF1F000EBC00153
:101BC00001EB0010A7EB8000322101EB0010642133
:101BD000B0FBF1F066F31F102168886033E0FFF777
:101BE00038FE00EBC00101EB001061688900B0FB1A
:101BF000F1F06421B0FBF1F6FFF72BFE00EBC00122
:101C000001EB001061688900B0FBF1F7FFF721FEDE
:101C100000EBC00101EB001061688900B0FBF1F03E
:101C20006421B0FBF1F000EBC00101EB0010A7EB69
:101C30008000322101EB00106421B0FBF1F066F36B
:101C40001F1021688860BDE8F081704710B5044618
:101C50000CB9012010BDA06900B100E000BF94F8EC
:101C6000390028B9002084F838002046FFF7EDFF3E
:101C7000022084F839002068C06820F400502168F0
:101C8000C8602046FFF7D4FE2068006920F4904029
:101C9000216808612068406920F02A0021684861B5
:101CA0002068C06840F400502168C8600020E063EC
:101CB000012084F839000020CCE710B504460CB9A7
:101CC000012010BD94F8390028B9002084F83800AC
:101CD0002046FFF7BAFF022084F839002068C06868
:101CE00020F400502168C8602046FFF7A1FE20685C
:101CF000006920F49040216808612068406920F064
:101D00002200216848612068406940F0080021688D
:101D100048612068C06840F400502168C860002015
:101D2000E063012084F839000020CAE770B504465A
:101D30000D460CB9012070BD94F8390028B9002077
:101D400084F838002046FFF780FF022084F839002D
:101D50002068C06820F400502168C8602046FFF762
:101D600067FE2068006920F400602168086120682F
:101D7000406920F02A00216848612068006940F429
:101D80008040216808612068006920F020002168F7
:101D90000861206800692843216808612068C068DC
:101DA00040F400502168C8600020E063012084F8FE
:101DB00039000020BFE770B504460D4616460CB941
:101DC000012070BD94F8390028B9002084F838004B
:101DD0002046FFF73AFF022084F839002068C068E7
:101DE00020F400502168C8602046FFF721FE2068DB
:101DF000006920F49040216808612068406920F063
:101E00002A00216848612068006920F00F002168DD
:101E10000861206800692843216808612068C0685B
:101E200020F400602168C8602068C06830432168E1
:101E3000C8602068C06840F400502168C860002075
:101E4000E063012084F839000020BAE7704710B53C
:101E500004460CB9012010BD022084F83900204648
:101E6000FFF7F4FF0020E06384F8390000BF84F836
:101E7000380000BF00BFEEE7001001400014014031
:101E80002DE9F04104460E4617461D464FF0000866
:101E900001F066F880469FBB2BE0681C48B32DB16B
:101EA00001F05EF8A0EB0800A84222D92068C068C3
:101EB00020F080002168C8602068C06820F0200001
:101EC0002168C8602068C06820F480702168C860FC
:101ED0002068406920F0010021684861012084F8F1
:101EE000390000BF002084F8380000BF0320BDE89F
:101EF000F081206800683040B04202D1012001E04A
:101F000003E000200028C8D035E02AE0681C40B378
:101F10002DB101F025F8A0EB0800A84221D92068D6
:101F2000C06820F080002168C8602068C06820F088
:101F300020002168C8602068C06820F48070216893
:101F4000C8602068406920F00100216848610120D4
:101F500084F8390000BF002084F8380000BF032057
:101F6000C5E7206800683040B04201D1012000E0A0
:101F700000200028CAD10020B9E72DE9F047044627
:101F80000D46164699464FF0000894F83980B8F18E
:101F9000010F02D0B8F1220F65D105B116B90120A9
:101FA000BDE8F08700BF94F83800012801D1022075
:101FB000F6E7012084F8380000BF0020E06394F8C1
:101FC0003900222803D1322084F8390002E012209F
:101FD00084F83900A684E68428E0E08C401EE08482
:101FE000A068B0F5805F14D14B46002280212046C6
:101FF000FFF746FF08B10320D2E72F463888C0F329
:10200000080021684860206908B9AD1C0EE06D1C0D
:102010000CE04B46002280212046FFF731FF08B13B
:102020000320BDE715F8010B21684860E08C00280B
:10203000D3DC4B46002240212046FFF721FF08B1A8
:102040000320ADE794F83900322803D1222084F828
:10205000390002E0012084F8390000BF002084F834
:10206000380000BF9CE702209AE72DE9F0470446BC
:102070000D46164699464FF0000894F83980B8F19D
:10208000010F02D0B8F1120F69D105B116B90120C4
:10209000BDE8F08700BF94F83800012801D1022084
:1020A000F6E7012084F8380000BF0020E06394F8D0
:1020B0003900122803D1322084F8390002E02220AE
:1020C00084F83900A685E68535E0E08D401EE08580
:1020D000A068B0F5805F18D14B4600222021204631
:1020E000FFF7CEFE08B10320D2E72F46206930B9B2
:1020F00020684068C0F308003880AD1C1BE02068F1
:102100004068C0B238806D1C15E04B46002220218B
:102110002046FFF7B5FE08B10320B9E7206920B9D2
:102120002068406805F8010B05E02068406800F071
:102130007F0005F8010BE08D0028C6DC94F839001B
:10214000322803D1122084F8390002E0012084F8FB
:10215000390000BF002084F8380000BF98E7022053
:1021600096E730B50346002493F83940012C01D09E
:10217000222C37D101B10AB9012030BD00BF93F83C
:102180003800012801D10220F7E7012083F8380048
:1021900000BF19629A84DA840020D86393F839006A
:1021A000222803D1322083F8390002E0122083F87C
:1021B00039001868C06840F480701D68E8601868CD
:1021C000406940F001001D68686100BF002083F88D
:1021D000380000BF1868C06840F080001D68E860E3
:1021E0000020CAE70220C8E730B50346002493F870
:1021F0003940012C01D0122C37D101B10AB901208C
:1022000030BD00BF93F83800012801D10220F7E764
:10221000012083F8380000BF99629A85DA85002092
:10222000D86393F83900122803D1322083F839009B
:1022300002E0222083F839001868C06840F48070FA
:102240001D68E8601868406940F001001D68686119
:1022500000BF002083F8380000BF1868C06840F055
:1022600020001D68E8600020CAE70220C8E7704728
:1022700070B50546AC6B0020E085E084012084F851
:102280003900E06B40F01000E0632046FFF7EFFFFD
:1022900070BD704770B50446A56B2846FFF7F9FF7F
:1022A00070BD704770B50546AC6B2868006800F4D7
:1022B000807070B90020E0842068406920F08000C0
:1022C000216848612068C06840F040002168C8600B
:1022D00002E02046FFF7E5FF70BDF7B5044615465E
:1022E000002794F83970012F01D0222F41D1019895
:1022F00000B10DB90120FEBD00BF94F838000128DF
:1023000001D10220F7E7012084F8380000BF0198CE
:102310002062A584E5840020E06394F83900222837
:1023200003D1322084F8390002E0122084F8390009
:10233000F748216BC863F748216B0864F648216BA6
:10234000886401AE23681A1D31682B46206BFEF7A6
:1023500063FA6FF04000216808602068406940F02F
:1023600080002168486100BF002084F8380000BF69
:10237000C1E70220BFE7704770B50446A56B284649
:10238000FFF7F9FF70BD704770B50546AC6B286864
:10239000006800F4807090B90020E08520684069F2
:1023A00020F040002168486194F83900322803D1B8
:1023B000122084F8390002E0012084F83900204618
:1023C000FFF7E1FF70BDF7B504461546002794F806
:1023D0003970012F01D0122F3CD1019800B10DB9F5
:1023E0000120FEBD00BF94F83800012801D1022071
:1023F000F7E7012084F8380000BF0198A062A585A6
:102400000020E06394F83900122803D1322084F8C8
:10241000390002E0222084F83900C048616BC863AB
:10242000BF48616B0864BC48616B886401AE326868
:102430002368191D2B46606BFEF7EEF92068406992
:1024400040F040002168486100BF002084F8380057
:1024500000BFC6E70220C4E7014600BF91F838007C
:10246000012801D102207047012081F8380000BF07
:1024700091F83900122806D10868406920F08000E0
:102480000A6850611AE091F83900222806D10868DC
:10249000406920F040000A6850610FE091F839006F
:1024A00032280BD10868406920F080000A6850612A
:1024B0000868406920F040000A68506100BF0020B1
:1024C00081F8380000BF00BFCDE708B5014600BF66
:1024D00091F83800012801D1022008BD012081F8BF
:1024E000380000BF91F83900122806D10868406909
:1024F00040F080000A6850612CE091F839002228F1
:102500000FD100BF0868006800900868406800901C
:1025100000BF00BF0868406940F040000A68506191
:1025200018E091F83900322814D100BF086800681B
:10253000009008684068009000BF00BF08684069CC
:1025400040F080000A6850610868406940F040002F
:102550000A68506100BF002081F8380000BF00BF4A
:10256000BBE710B504462068406920F08000216870
:1025700048612068406920F0400021684861206B74
:1025800010B1206BFEF77DF9606B10B1606BFEF748
:1025900078F9012084F83900002010BD10B50446F8
:1025A0002068C06820F040002168C86094F83900B5
:1025B000322803D1222084F839000EE02068C06858
:1025C00020F480702168C8602068406920F0010014
:1025D00021684861012084F839002046FFF761FE38
:1025E000002010BD10B50146002391F83930122BA0
:1025F00001D0322B2CD18868B0F5805F0FD10A6AE8
:102600001088C0F308000C686060086918B9086A8F
:10261000801C086209E0086A401C086205E00C6A38
:10262000601C086220780C686060C88C401E80B214
:10263000C88458B90868C06820F080000C68E06061
:102640000868C06840F040000C68E060002010BDE1
:102650000220FCE770B50446002694F83960222E6B
:1026600001D0322E52D1A068B0F5805F13D1A56A97
:10267000206940B920684068C0F308002880A06A3B
:10268000801CA06219E020684068C0B22880A06A5F
:10269000401CA06211E0206938B920684068C1B2CE
:1026A000A26A501CA062117007E02068406800F028
:1026B0007F01A26A501CA0621170E08D401E80B2A2
:1026C000E08508BB2068C06820F020002168C86051
:1026D00094F83900322803D1122084F839000EE032
:1026E0002068C06820F480702168C8602068406954
:1026F00020F0010021684861012084F8390020465B
:10270000FFF741FE002070BD0020FCE70220FAE741
:10271000A5220008952200087122000889230008DC
:1027200079230008F8B504460025002620680068D3
:1027300000F001052068C06800F480766DB166B1D4
:1027400000BF20680068009020684068009000BFCB
:1027500000BFE06B40F00100E06320680068C0F358
:1027600040052068406900F001066DB166B100BF08
:1027700020680068009020684068009000BF00BF9B
:10278000E06B40F00400E06320680068C0F380055F
:102790002068406900F001066DB166B100BF206895
:1027A0000068009020684068009000BF00BFE06BA8
:1027B00040F00200E06320680068C0F3C0052068B4
:1027C000406900F001066DB166B100BF2068006885
:1027D000009020684068009000BF00BFE06B40F0B0
:1027E0000800E06320680068C0F340152068C068F6
:1027F00000F020061DB116B12046FFF72BFF206820
:102800000068C0F3C0152068C06800F080061DB1E4
:1028100016B12046FFF7E6FE20680068C0F3801579
:102820002068C06800F040061DB116B12046FFF7D1
:10283000B5FEE06B28B1012084F839002046FFF78F
:1028400016FDF8BD014600BF91F83800012801D1FE
:1028500002207047012081F8380000BF022081F873
:1028600039000868C06840F001000A68D0600120A3
:1028700081F8390000BF002081F8380000BF00BF98
:10288000E7E7014600BF91F83800012801D1022096
:102890007047012081F8380000BF022081F839001C
:1028A0000868C06840F002000A68D060012081F822
:1028B000390000BF002081F8380000BF00BFE7E703
:1028C000014600BF91F83800012801D1022070476D
:1028D000012081F8380000BF022081F83900086823
:1028E000C06820F002000A68D060012081F8390039
:1028F00000BF002081F8380000BF00BFE7E70146B5
:10290000002200BF91F83800012801D10220704751
:10291000012081F8380000BF022081F839000868E2
:10292000C26822F00C0242F008020868C26001206E
:1029300081F8390000BF002081F8380000BF00BFD7
:10294000E5E70146002200BF91F83800012801D1D7
:1029500002207047012081F8380000BF022081F872
:1029600039000868C26822F00C0242F004020868CC
:10297000C260012081F8390000BF002081F83800D2
:1029800000BF00BFE5E7014691F8390070470146F6
:10299000C86B704700B593B000BF2648006840F090
:1029A0008050244908600846006800F0805001907B
:1029B00000BF00BF00BF2048006840F440401E49EF
:1029C00008600846006800F44040019000BF00BF66
:1029D000022002900020039001200590002109911F
:1029E0000220089010210A914FF4C8710B91042124
:1029F0000C9107210D9102A8FEF701FB10B10120F7
:102A000013B000BD02200F900020109007200E9000
:102A10000E9840F008000E904FF480501190002066
:102A2000129006210EA8FEF7ECFC08B10120E7E7A2
:102A30000020E5E7403802400070004001464FF4B6
:102A40000030081AC0F38F2070472DE9F043044688
:102A50000E461546DDE907892046FFF7EFFFC7B2AE
:102A6000002243E001209040304000B93CE0B148F2
:102A700030F81700012191400843AE4921F81700B2
:102A8000E0684FEA420C032101FA0CF1884351003F
:102A900008FA01F10843E06020684FEA420C032184
:102AA00001FA0CF18843510005FA01F10843206056
:102AB000012D01D0022D16D161680120904080B215
:102AC00021EA000003FA02F189B208436060A068BD
:102AD0004FEA420C032101FA0CF18843510009FA34
:102AE00001F10843A06000BF501CC2B2102AB9DB3C
:102AF000BDE8F08300B502461046FFF79FFF0121B5
:102B000001FA00F08C49096808438B49086000BD50
:102B10002DE9FC4305460C4616461F46DDE90989AA
:102B20000CB9BDE8FC832846FFF7E4FF3B4632467C
:102B300021462846CDE90089FFF787FF00BFF0E76F
:102B40002DE9FC4705460E4617469846DDE90A9AE8
:102B50000EB9BDE8FC872846FFF7CCFF00241AE039
:102B60000120A040304000B914E0E10805F1200048
:102B700050F821006107CA0E0F2191408843610778
:102B8000C90E0AFA01F10843E20805F1200141F8F3
:102B9000220000BF641C102CE2D33B4602223146C7
:102BA0002846CDE90089FFF750FF00BFD1E770B597
:102BB00003460C461846FFF741FFC5B2002214E059
:102BC00001209040204070B1186856000321B140A8
:102BD00008431860574830F8150001219140884398
:102BE000544921F81500501CC2B2102AE8DB70BD10
:102BF00030B5024600200BE0012383400B402BB18F
:102C0000136845000324AC40A3431360431CD8B2AF
:102C10001028F1DB30BD30B5024600200FE0012363
:102C200083400B404BB1136845000324AC40A343E1
:102C300045000124AC4023431360431CD8B2102844
:102C4000EDDB30BD30B5024600200BE001238340B0
:102C50000B402BB1136845000324AC4023431360A1
:102C6000431CD8B21028F1DB30BD30B5024600203D
:102C700011E0012383400B4003B90AE013684500CB
:102C80000324AC40A34345000224AC40234313601B
:102C900000BF431CD8B21028EBDB30BD70B5034633
:102CA000002011E0012484400C4004B90AE0DC68F3
:102CB00046000325B540AC43450002FA05F52C4318
:102CC000DC6000BF441CE0B21028EBDB70BD41F4B7
:102CD0008032C261C161C261C369C3697047014684
:102CE000002002E0421C90B249100129FADC704732
:102CF00000B502461046FFF7A1FE012181400E48B3
:102D0000006888430C49086000BD00B502461046C3
:102D1000FFF794FE074931F8100000BD00B50246E8
:102D20001046FFF78BFE034931F81000C04380B214
:102D300000BD000074000020303802409748006851
:102D400020F08070954A10601046006840F0807056
:102D500010609348006820F00100914A106010460E
:102D6000006840F00100106000205060104641688B
:102D700000BF00BF8A484068401A70472DE9F047FD
:102D800005460E4617469846DDF82090854800789F
:102D9000052802DB0020BDE8F087142004F0BEFB0C
:102DA00004460CB90020F6E765606068A0602078F2
:102DB00066F300002070207867F341002070C4F8AB
:102DC0000C80C4F81090774801780078401C754A50
:102DD0001070101D40F821402046DCE72DE9F0413D
:102DE0000646002408E06F48001D50F82400B04259
:102DF00000D105E0601CC4B26A480078A042F2DC51
:102E000000BF68480078A04201D1BDE8F081654864
:102E1000001D50F8247000BFEFF31080054672B615
:102E200008E06048001D611C50F8211040F8241093
:102E3000601CC4B25B480078401EA042F1DC5948D7
:102E40000078401E57490870384604F03FFB05B92A
:102E500062B600BFD9E7017821F002010170704726
:102E6000017821F00201891C01707047416881607E
:102E7000704709B1012200E00022037862F30003E9
:102E80000370704741607047704710B5464800684E
:102E9000401C454908604548006820B14348006827
:102EA000401E42490860002453E03E48001D50F88F
:102EB000240000284BD03B48001D50F82400007827
:102EC000C0F34000F0B33748001D50F8240080687C
:102ED00050B13448001D50F824008068401E31492C
:102EE000091D51F8241088602E48001D50F8240058
:102EF000806838BB2B4B1B1D53F824301969294BB4
:102F00001B1D53F8240053F82430DA6890472548F5
:102F1000001D50F8240041682248001D50F824008C
:102F200081602048001D50F82400007800F0010066
:102F300040B91C48001D50F82400007820F0020120
:102F4000184800E003E0001D50F824000170601CE8
:102F5000C4B214480078A042A7DC00F04BFD10BDBD
:102F600011480068704700B5014600BFEFF30580C7
:102F700048B9FFF7F5FF024600BFFFF7F1FF801ADF
:102F80008842FAD309E006E04FF0E020006900F43F
:102F9000803000B1491E0029F6D100BDFCED00E0F3
:102FA000001000E090000020080000200400002035
:102FB0001CB5032000210B460122CDE90010202181
:102FC0001E48FFF7A5FD4FF400101C4988611CBD89
:102FD0001CB50020012103460246CDE9001049033B
:102FE0001748FFF795FD1CBD154810300068C0F369
:102FF000403080F0010030B11248007830B9012033
:1030000010490870704700200E4908700020F9E749
:103010000B4810300068C0F3403080F0010038B930
:103020000848007838B10020064908700120704730
:103030000120044908700020F9E700000000024068
:10304000000802400C00002070B504460D461646EC
:103050001421204603F0E7FE2580A6600A20607355
:10306000A06868B9284604F059FAA060A06818B9A9
:1030700000202080012070BD207B40F002002073E2
:10308000207B40F0010020730020F4E710B50446D7
:1030900004B910BD207B00F0020010B1A06804F05C
:1030A00015FA00202073208000BFF2E770B50346B8
:1030B00000240BB9002070BD58881D88A84201DB90
:1030C000002058801BE05D889888401E854206D00D
:1030D000988828B95D881888401E854200D113E081
:1030E00011F8015B5E88701C588098688555601CDB
:1030F000C4B258881D88A84201DB00205880101EE9
:10310000A2F10105AAB2DED100BF2046D3E730B557
:10311000034600240BB9002030BD98881D88A842C2
:1031200001DB0020988013E098885D88A84200D1D8
:1031300013E09D88681C98809868405D01F8010B39
:10314000601C84B298881D88A84201DB002098800A
:10315000101EA2F10105AAB2E6D100BF2046DBE7AE
:1031600030B5014609B9002030BD4A888B889A42A3
:1031700000D10C88934200D99C1A9A4202D908883F
:10318000D51A441B601E80B2EEE730B503460BB97A
:10319000002030BD59889A88914200D10024914284
:1031A00000D98C1A8A4202D91888551A441BA0B239
:1031B000EFE700B9704700214180818000BFF9E747
:1031C0002DE9F04104460F464FF000081CB94FF0BE
:1031D000FF30BDE8F0812046FFF7D7FF0546A688FF
:1031E00012E02088B04200DC0026A068805DB84272
:1031F00002D10FFA88F0ECE7701C86B2681E85B227
:1032000008F101001FFA80F8002DEADC4FF0FF30D2
:10321000DFE72DE9F04F0446894690464FF0000A5B
:10322000D3462CB12046FFF7B0FF0646404503DAEF
:103230004FF0FF30BDE8F08FA58835E02088A84228
:1032400000DC0025A068405D99F80010884201D19B
:103250004FF0010B681C85B2701E86B20AF10100A6
:103260001FFA80FABBF1000F1ED0012714E020885E
:10327000A84200DC0025A068405D19F807108842CC
:1032800004D0781E50441FFA80FA07E0681C85B20B
:10329000701E86B2781C87B24745E8DB00BF474501
:1032A00002D10FFA8AF0C5E7002EC7DC4FF0FF30DD
:1032B000C0E770B505460C46204603F0DDFD86B23A
:1032C000324621462846FFF7F1FE70BD2DE9F84150
:1032D00006460D461746002416B90020BDE8F881C1
:1032E0003046FFF73DFF8046B8F1000F0DD0717BEF
:1032F0003046FFF765FF002809DAB8F1000F06D065
:103300003046FFF742FFB84201DA0020E6E70EE060
:10331000012269463046FFF7FAFE9DF80000285565
:10332000285D717B884200D104E0601C84B2781E65
:10333000A042EDDC00BF781EA04202D1002028553B
:1033400004E00021601C80B2044629542046C5E7F1
:1033500070B503460C46154600220BB9002070BD1F
:103360005E88998807E0481C81B2501C82B2188898
:10337000884200DC0021A24201DA8E42F3D1A2424F
:1033800004D19868405C28700120E8E70020E6E757
:103390000146FA4A914200D10020F94A914200D1F7
:1033A0000120F84A914200D10620704770471CB5B1
:1033B00004464CB90820032101230022CDE9001066
:1033C000C021F148FFF7BCFB032C03D10821ED48D5
:1033D000FFF7ECFF1CBD1CB504464CB907200321C8
:1033E00001230022CDE900100C21E848FFF7A8FBDB
:1033F000012C09D10720032101230022CDE900106F
:103400006021E348FFF79CFB032C03D10721DC4834
:10341000FFF7CCFF1CBD1CB504464CB907200321A7
:1034200001230022CDE900104902D848FFF788FBAC
:10343000012C09D10720032101230022CDE900102E
:10344000C021D448FFF77CFB032C03D10721CB48D4
:10345000FFF7ACFF1CBD2DE9F04F91B004460D46BF
:1034600016461F46DDE91BABDDF86890C348844271
:103470001FD100BFC848006840F01000C64908606E
:103480000846006800F01000009000BF00BFC2486E
:103490002038006840F01000BF4920390860084615
:1034A000006820F0100008602846FFF7B4FF4FF0D6
:1034B0002508B348844221D100BFB748001F0068E7
:1034C00040F40030B449091F08600846006800F461
:1034D0000030009000BF00BFAF482438006840F4BF
:1034E0000030AD49243908600846006820F40030F7
:1034F00008602846FFF76FFF4FF02608A148844276
:103500001FD100BFA448006840F02000A249086015
:103510000846006800F02000009000BF00BF9E48F1
:103520002038006840F020009B4920390860084698
:10353000006820F0200008602846FFF738FF4FF0B1
:103540004708019402960797CDF81890CDF814A07B
:10355000CDF810B01D980390002108914046FCF76B
:1035600072FF2046FFF714FF0246062100904046F6
:10357000FCF71EFF4046FCF759FF4046FDF73DF8BB
:1035800001A8FEF763FBE06840F02000E06011B0A6
:10359000BDE8F08F7FB504460D4616467748844255
:1035A0000BD100200C23CDE90030029003463246B7
:1035B000294603902046FFF74EFF714884420BD105
:1035C00000200C23CDE90030029003463246294604
:1035D00003902046FFF73FFF6A4884420BD100204A
:1035E0000C23CDE900300290034632462946039071
:1035F0002046FFF730FF7FBD2DE9FF4104460D4611
:1036000016461F465D4884420BD100200C23CDE9AD
:10361000003002903B463246294603902046FFF791
:103620001AFF574884420BD100200C23CDE900300B
:1036300002903B463246294603902046FFF70BFF97
:10364000504884420BD100200C23CDE90030029079
:103650003B463246294603902046FFF7FCFEBDE874
:10366000FF810146454A914200D14C48444A91426B
:1036700000D14B48434A914200D14A48704738B57F
:1036800004462046FFF7EDFF054601226946FFF795
:103690003EFD10B19DF8000038BD0020FCE72DE98B
:1036A000F04104460D4616462046FFF7DAFF07466E
:1036B00032462946FFF70AFEBDE8F0810EE000BF62
:1036C000026802F08002002AFAD011F8012B426051
:1036D00000BF026802F08002002AFAD00A78002AAD
:1036E000EDD1704710B50EE000BF036803F0800312
:1036F000002BFAD011F8013B436000BF036803F0D0
:103700008003002BFAD0131EA2F10104A2B2EBD168
:1037100010BD70B504460D462046FFF7A2FF0646D1
:103720002946FFF74DFD70BD2DE9F04105460C46D9
:10373000204603F0A1FB86B22846FFF792FF07461A
:1037400032462146FFF765FDBDE8F08170B50446BD
:103750002046FFF786FF0546FFF717FD08B9012051
:1037600070BD0020FCE770B504462046FFF779FFE6
:103770000546FFF7F5FCB8B9012070BD0010014007
:1037800000440040001401400008024000000240D4
:10379000000C0240000402404438024010000020A7
:1037A00024000020380000200020E6E770B5044621
:1037B0002046FFF756FF0546FFF7E7FC70BD70B5E2
:1037C00004462046FFF74DFF0546FFF7F2FC70BDAB
:1037D00070B505460C462846FFF743FF447370BD9D
:1037E00013B50446012201A92046FFF75FFC1CBD6A
:1037F00038B505460C463848056000BF00680068CB
:103800000090354800684068009000BF00BF00BFCE
:1038100031480068006800902F48006840680090B8
:1038200000BF00BF00BF2C480068006800902A4815
:1038300000684068009000BF00BF00BF26480068D5
:1038400000680090244800684068009000BF00BFF6
:1038500000BF21480068006800901F480068406869
:10386000009000BF00BF2046FCF7C7FE38BD10B572
:103870001A48006800F0200020B118494968C8B211
:1038800003F0AFFA25211548FFF7B2FF10BD10B5C0
:103890001348006800F0200030B11148001D006896
:1038A000C1B21048FFF79CFF26210D48FFF7A0FF8B
:1038B00010BD10B50C48006800F0200030B10A4877
:1038C000001D0068C1B20948FFF78AFF472106487A
:1038D000FFF78EFF10BD000008010020001001401E
:1038E0000044004024000020001401403800002063
:1038F00008B5FFF74FF8FCF77EFCFFF759FBFFF721
:1039000067FBFFF71BFA4FF4E1320021A948FFF7EC
:1039100041FEA9A003F070FB02E0AFA003F06CFB36
:103920004FF4E131B64802F05EF80028F5D100BF4F
:103930000321B34802F09AFA0028F9D100BF5021C0
:10394000AF4802F01EFB0028F9D1AEA003F054FBF3
:10395000AB4802F086FBAA4802F058FDA84801F0E7
:1039600025FFAFA2B1A1A64802F09DFBA44801F03B
:103970001DFFA34802F0DFFBA14801F093FD00BF4B
:10398000002041F28833ABA2AEA100909C4802F027
:103990000CFE0028F4D19A4890F81B4401F006FF71
:1039A000ABA1A86903F038FB2946954802F084FAD8
:1039B0001FE004EB440000EB0411AD4800EB810074
:1039C000C07F012812D1002104EB440000EB041257
:1039D000A74800EB8200C17704EB440000EB04121F
:1039E000A34800EB8201864802F066FA844801F0A1
:1039F00059FDDEE710B50121814802F00CFA10BD37
:103A000008B5C2B200926B4AD26802F400528AB181
:103A100000BF684A126802F08002002AF9D09DF8BF
:103A20000020644B5A6000BF624A126802F08002B4
:103A3000002AF9D000BF08BD10B504468DA003F0E0
:103A4000DBFA10BD10B504468FA003F0D5FA10BD07
:103A500010B5044693A003F0CFFA10BD10B504468C
:103A600096A003F0C9FA10BD10B5044694F81A14D4
:103A700098A003F0C1FA10BD70B50446A2A003F0EF
:103A8000BBFA204602F061FB05462946A5A003F0DB
:103A9000B3FA70BD38B5044640F2D720005D0090FF
:103AA00040F2D620035D401E025D94F8D412A4A01B
:103AB00003F0A2FA38BD10B50446ABA003F09CFA9F
:103AC00010BD70B506460C46002594F80C13AAA04C
:103AD00003F092FA00BF0CE0C5EBC50000EB451007
:103AE00004EB4000421C2946ACA003F085FA681C98
:103AF000C5B294F80C03A842EEDC70BD70B5054663
:103B00000C4604F12401A8A003F076FA70BD70B54C
:103B100005460C466178B1A003F06EFA70BD70B531
:103B200004460D46BCA003F067FA70BD70B50546AB
:103B30000C466178C1A003F05FFA70BDF8B5054688
:103B40000C461646206A009004F12401C748D4E9C7
:103B5000032303F051FA94F8490038B1C4480068CF
:103B6000C4490860C448216A03F046FAF8BD70B53C
:103B700006460C466178C148236A226903F03CFA84
:103B8000BB480068BB490968401ABA490860206907
:103B90000968B0FBF1F52A46B6480168B8A003F001
:103BA0002BFA70BD70B505460C466178BEA003F0D7
:103BB00023FA70BD00440040455350383236362059
:103BC000415420636F6D6D616E6473207061727318
:103BD00065720D0A0000000050726F626C656D73B3
:103BE000207769746820696E697469616C697A69A3
:103BF0006E67206D6F64756C65210D0A0000000012
:103C000048010020496E697469616C697A61746960
:103C10006F6E2066696E6973686564210D0A000025
:103C20006D616B65723037303100000077697A6DF5
:103C3000733100003139322E3136382E312E36357F
:103C4000000000007461796C6F722D7063000000D9
:103C50006162636465666768696A6B6C6D6E6F70DC
:103C60007172737475767778797A0D0A00000000A6
:103C7000A00200204465766963652069732072653F
:103C80006164790D0A0000005761746368646F67AE
:103C9000207265736574206465746563746564215E
:103CA0000D0A0000576966692069732064697363AF
:103CB0006F6E6E6563746564210D0A0057696669ED
:103CC00020697320636F6E6E6563746564210D0AED
:103CD00000000000436F6E6E656374696F6E207440
:103CE0006F2077696669206E6574776F726B2068E4
:103CF0006173206661696C65642E20526561736F23
:103D00006E2025640D0A00005769666920676F748C
:103D100020616E20495020616464726573730D0ADE
:103D2000000000004772616262696E67204950209E
:103D30007374617475733A2025640D0A00000000E5
:103D4000576520686176652076616C69642049500A
:103D500020616464726573733A2025642E25642E95
:103D600025642E25640D0A00444843502074696D73
:103D7000656F7574210D0A005765206861766520AE
:103D80006465746563746564202564204150207304
:103D9000746174696F6E730D0A0000002532643A15
:103DA0002025730D0A000000436C69656E74206362
:103DB0006F6E6E656374656420746F2073657276D0
:103DC00065722120436F6E6E656374696F6E206E3D
:103DD000756D6265723A2025730D0A00416E20658B
:103DE00072726F72206F63637572656420776865A5
:103DF0006E20747279696E6720746F20636F6E6EC7
:103E0000656374206F6E20636F6E6E656374696F97
:103E10006E3A2025640D0A00446174612073756355
:103E20006365737366756C6C792073656E7420615D
:103E30007320636C69656E74210D0A004572726FA0
:103E400072207768696C652073656E64696E67209F
:103E500064617461206F6E20636F6E6E6563746958
:103E60006F6E202564210D0A00000000B075000867
:103E7000080000204C000020687600080876000842
:103E800054696D6520666F7220646174613A202503
:103E900075206D733B2073706565643A202564203E
:103EA0006B622F730D0A000054696D656F75742085
:103EB00072656163686564206F6E20636F6E6E6506
:103EC0006374696F6E3A2025640D0A00704700BF65
:103ED000FEE700BFFEE700BFFEE700BFFEE770475A
:103EE00070477047704710B5FEF7CFFF10BD000058
:103EF0003F48006840F470003D4908603D48006854
:103F000040F001003B49086000203A490831086050
:103F10003848006838490840364908603748091D64
:103F20000860081F006820F48020091F0860002036
:103F300030490C3108604FF000602D49803908602D
:103F4000704770B500200022022300240221294D71
:103F500008352D6805F00C0020B1042806D008288B
:103F600034D107E0264D274E356033E0264D254EEF
:103F700035602FE01F4D2D1D2D68C5F380541D4D5C
:103F80002D1D2D6805F03F0154B11F4DB5FBF1F516
:103F9000184E361D3668C6F3881605FB06F209E092
:103FA000174DB5FBF1F5134E361D3668C6F388166E
:103FB00005FB06F20F4D2D1D2D68C5F301456D1C47
:103FC0006B00B2FBF3F50F4E356003E00C4D0D4E68
:103FD000356000BF00BF074D08352D68C5F30315D8
:103FE0000A4E705D074D2D68C540064E356070BDA8
:103FF00088ED00E000380240FFFFF6FE103000249C
:104000000024F4005000002000127A00A07500087F
:10401000704770B5024600250023002410782D2833
:1040200003D10125521C601CC4B207E0107830385F
:104030000A2603FB0603521C601CC4B21078302809
:1040400002DB10783928F1DD01B10C700DB1584256
:1040500070BD1846FCE770470146302905DB392959
:1040600003DCA1F13000C0B27047612905DB66298D
:1040700003DCA1F15700C0B2F6E7412905DB462970
:1040800003DCA1F13700C0B2EEE70020ECE7014607
:10409000302903DB392901DC01207047612903DB6A
:1040A000662901DC0120F8E7412903DB462901DC10
:1040B0000120F2E70020F0E72DE9F04104460D462B
:1040C0000026002708E02078FFF7C6FF102106FB36
:1040D0000106641C781CC7B22078FFF7D8FF0028BF
:1040E000F1D105B12F703046BDE8F0812DE9F843DC
:1040F00081460E4614464FF000080020009000252F
:10410000F8A1484602F0F2FE074618E06946384634
:10411000FFF7D2FFC2B24046411C01F0FF08325403
:104120009DF800002844C5B2B8F1060F00DB08E096
:10413000681CC5B2EBA1002002F0D8FE0746002F94
:10414000E4D100BF04B12570BDE8F8832DE9F04348
:1041500085B006460F4614460025A9460F22314673
:10416000684602F047FE00208DF80F00DEA1684689
:1041700002F0BCFE804618E004A94046FFF749FF64
:10418000C2B24846411C01F0FF093A549DF81000A4
:104190002844C5B2B9F1040F00DB09E0681CC5B2C0
:1041A000D1A1002002F0A2FE8046B8F1000FE3D1B9
:1041B00000BF04B1257005B0BDE8F08338B50446F2
:1041C0000D4694F880040A2800DB38BD94F880047A
:1041D00000EB800204F21C4000EB42016A462846D4
:1041E000FFF7B4FF94F8802402EB820304F21C4230
:1041F00002EB4302111D9DF80020521CA81800225A
:10420000FFF774FF94F88004401C84F8800400BF1A
:10421000DBE7704770477047704770472DE9F04102
:1042200004460F464FF000080E223946AFA002F0B8
:104230004EFE20B90E2501264FF016086BE0132222
:104240003946AEA002F043FE20B9132502264FF0F6
:10425000160860E013223946ADA002F038FE20B9FE
:10426000132503264FF0160855E00A223946ADA063
:1042700002F02DFE20B90A2501264FF016084AE06B
:104280000F223946AAA002F022FE20B90F250226ED
:104290004FF016083FE00F223946A9A002F017FEA2
:1042A00020B90F2503264FF0160834E00D223946B9
:1042B000A7A002F00CFE10B90D2501262BE012225A
:1042C0003946A7A002F003FE10B91225022622E00B
:1042D00012223946A7A002F0FAFD10B912250326D2
:1042E00019E009223946A8A002F0F1FD10B909250C
:1042F000012610E00E223946A6A002F0E8FD10B912
:104300000E25022607E00E223946A6A002F0DFFDA8
:1043100008B90E250326B8F1160F35D1012E04D0A9
:10432000022E11D0032E2DD11DE0A91C78180022D9
:1043300004F53571FFF70AFF94F8900420F00100AE
:10434000401C84F890041EE0A91C7818002204F593
:104350003771FFF7FBFE94F8900420F00200801CF8
:1043600084F890040FE0A91C7818002204F5367137
:10437000FFF7ECFE94F8900420F00400001D84F890
:10438000900400E000BF35E0012E04D0022E11D0D1
:10439000032E2DD11DE0A91C7818002204F2E6217D
:1043A000FFF7D4FE94F8900420F01000103084F849
:1043B00090041EE0A91C7818002204F2EE21FFF7F9
:1043C000C5FE94F8900420F02000203084F890047A
:1043D0000FE0A91C7818002204F2EA21FFF7B6FECC
:1043E00094F8900420F04000403084F8900400E0FD
:1043F00000BF00BFBDE8F0817047F8B505460F4625
:104400003C4604E020783A2800D103E0641C207880
:104410000028F7D100BF04B9F8BD641C002085F85E
:10442000FA022078222800D1641C002607E014F844
:10443000012B3046711CCEB205F2FA210A542078C5
:1044400040B120782228F2D160782C28EFD1A078D2
:104450002228ECD100223046711CCEB205F2FA219E
:104460000A54E41C002607E014F8012B3146701CA6
:10447000C6B205F23B304254207828B12078222879
:10448000F2D160782C28EFD100223146701CC6B2E0
:1044900005F23B304254A41C69462046FFF7B9FDA3
:1044A00085F87D039DF80000401C044469462046C1
:1044B000FFF7AFFD85F87C039DF80000401C044425
:1044C00069462046FFF7A5FD85F87E039DF80000AC
:1044D000401C044469462046FFF79BFD85F87F0396
:1044E00000BF99E73A0000002E0000002B4349501E
:1044F0005354415F4355523A697000002B43495071
:104500005354415F4355523A6E65746D61736B004D
:104510002B4349505354415F4355523A6761746588
:10452000776179002B4349505354413A6970000038
:104530002B4349505354413A6E65746D61736B005F
:104540002B4349505354413A676174657761790050
:104550002B43495041505F4355523A697000000067
:104560002B43495041505F4355523A6E65746D611B
:10457000736B00002B43495041505F4355523A67DB
:1045800061746577617900002B43495041503A6965
:10459000700000002B43495041503A6E65746D61C4
:1045A000736B00002B43495041503A676174657743
:1045B0006179000070472DE9F04180460D460726DD
:1045C0000027FE4890F80C03052801DBBDE8F081C8
:1045D000A85D282801D1701CC6B2A819F8A102F064
:1045E00085FC044694E03846791CCFB2072876D281
:1045F000DFE800F00413293B5364760000212046D5
:10460000FFF707FDED4991F80C13C1EBC10202EB76
:104610004111EA4A02F8110074E0641C204602F0DD
:104620002BFC401E00212154E44991F80C13C1EBEE
:10463000C10202EB4111E14A02EB4101481C214653
:1046400002F03CFC5EE000212046FFF7E2FC00B2F5
:10465000DA4991F80C13C1EBC10202EB4111D74AC0
:1046600002EB4101A1F842004CE0641C204602F03C
:1046700003FC401E00212154D04890F80C03C0EBED
:10468000C00202EB4010CD4A02EB400000F14401B1
:1046900000222046FFF72AFD34E000212046FFF7E4
:1046A000B8FCC64991F80C13C1EBC10202EB4111F1
:1046B000C24A02EB410181F84A0023E00021204672
:1046C000FFF7A7FCBD4991F80C13C1EBC10202EB47
:1046D0004111BA4A02EB410181F84B0012E010E0AF
:1046E00000212046FFF795FCB44991F80C13C1EB6B
:1046F000C10202EB4111B14A02EB410181F84C00C9
:1047000000E000BF00BFAEA1002002F0EFFB0446B6
:10471000002C7FF468AFA94890F80C03401CA7490F
:1047200081F80C0300BF51E7F8B505460E46344644
:10473000A4A1304602F082FB00B9F8BD00E0641C81
:10474000207810B120782228F9D1641C002707E0D6
:1047500014F8012B3846791CCFB205F574710A5450
:10476000207840B120782228F2D160782C28EFD12F
:10477000A0782228ECD100223846791CCFB205F56A
:1047800074710A54E41C6A4640312046FFF7AEFCBF
:104790009DF80000801C044469462046FFF739FC60
:1047A00085F816049DF80000401C04446946204624
:1047B000FFF72FFC01B2A5F8181400BFBDE7704742
:1047C000704770472DE9F04705460E461746984654
:1047D000A946BA4600240BE009EB040042465146C4
:1047E00002F05FFB18B909EB0400BDE8F087641C18
:1047F000B442F1D30020F8E7704770477047704724
:10480000704770477047704770472DE9FC5F04465A
:104810000D4693469A460027D4F84C01C4F850013F
:10482000BAF1020F07D128780D2804D168780A2838
:1048300001D1BDE8FC9F6068002833D0BBF1010FB7
:1048400030D162A1284602F01EFB00282AD061A1C7
:10485000284602F018FB28B361A1284602F013FB9A
:1048600000B361A1284602F00EFBD8B160A1284632
:1048700002F009FBB0B1042260A1284602F027FB38
:1048800080B104F1080002F0F7FA81464A4604F1CB
:104890000801284602F01BFB20B12946594802F0C6
:1048A0001DFAC6E750A1284602F0EDFA10B92046DD
:1048B000FFF7C2F854A1284602F0E5FA10B92046E5
:1048C000FFF7C0F82046FFF7A3FB52A1284602F0ED
:1048D000DAFA60B940F29140005D20F00400001D5A
:1048E00040F2914108552046FFF7B8F832E04EA15A
:1048F000284602F0C8FAE0B940F29140005D20F08D
:10490000040140F291400155005D20F0080140F2A1
:10491000914001554A2104F5747002F084FA4FF475
:10492000BE7104F5AC7002F07EFA2046FFF790F8F5
:1049300010E042A1284602F0A6FA58B940F2914090
:10494000005D20F00800083040F2914108552046F3
:10495000FFF792F81FA1284602F070FA50B300202A
:104960006060814685E009EB490000EB091104F520
:10497000AC7000EB8100407DE8B1002109EB4900FB
:1049800000EB091204F5AC7000EB8200417509EBF5
:10499000490000EB091104F5AC7000EB8100807850
:1049A00050B109EB490000EB091204F5AC7000EBC3
:1049B00082014BE062E058E04CE00000080C00206F
:1049C0002C0000002B43574A41505F004F4B0D0A0B
:1049D0000000000053454E44204F4B0D0A000000DC
:1049E0004552524F520D0A0072656164790D0A00FA
:1049F0006275737920702E2E2E0D0A002B495044BB
:104A000000000000E0050020776474207265736583
:104A1000740D0A005749464920434F4E4E454354B2
:104A200045440D0A000000005749464920444953B7
:104A3000434F4E4E4543540D0A0000005749464926
:104A400020474F542049500D0A0000002046FFF730
:104A500066F80AE009EB490000EB091204F5AC70B6
:104A600000EB82012046FFF7C9FE09F1010000F0CA
:104A7000FF09B9F1050FFFF676AF00BF0422AFF2D0
:104A80008401284602F023FA00287CD1012084F812
:104A9000800384F887B30527E85D3038C1B240F25F
:104AA00086300155FA49005D00EB400202EB00122E
:104AB00004F5AC7000EB8200816140F28630015D4C
:104AC000005D00EB400202EB001204F5AC7000EB5D
:104AD00082004170BF1CE81901A9FFF79AFA40F261
:104AE0008631095D01EB410202EB011204F5AC7164
:104AF00001EB8201C86040F28630005D00EB4001AE
:104B000001EB001104F5AC7000EB81000069E0B925
:104B1000002140F28630005D00EB400202EB001203
:104B200004F5AC7000EB820080F84810012140F2DF
:104B30008630005D00EB400202EB001204F5AC7021
:104B400000EB820080F849100DE0002140F2863031
:104B5000005D00EB400202EB001204F5AC7000EBCC
:104B6000820080F8491040F28630005D00EB400181
:104B700001EB001104F5AC7000EB8100016940F21B
:104B80008630005D00E0CFE000EB400202EB001257
:104B900004F5AC7000EB8200C068014440F286303E
:104BA000005D00EB400202EB001204F5AC7000EB7C
:104BB0008200016140F28630005D00EB400202EBB2
:104BC000001204F5AC7000EB8200D4F88414C068C5
:104BD0000844C4F884049DF80400401C074440F2D3
:104BE0008632125D02EB420303EB021304F5AC7252
:104BF00002EB8302911DE81901AAFFF7A7FA9DF8BD
:104C00000400401C0744E81901A9FFF702FA81B229
:104C100040F28630005D00EB400202EB001204F52A
:104C2000AC7000EB8200818000BF002700E07F1C99
:104C3000E85D3A28FBD17F1CAAEB0702E91940F294
:104C400086331B5D03EB430C0CEB031C04F5AC73C8
:104C500003EB8C03986902F0CDF8AAEB070140F250
:104C60008630005D00EB400202EB001204F5AC70F0
:104C700000EB8200C068814219D9002140F28630E1
:104C8000005D00EB400202EB001204F5AC7000EB9B
:104C90008200826940F28630005D00EB400303EB46
:104CA000001304F5AC7000EB8300C0681154AAEB4C
:104CB000070081B24FF461700153801E0153001D43
:104CC000005D00EB400101EB001104F5AC7000EB5E
:104CD0008100C068B84227D8002084F8800340F2E1
:104CE0008630005D00EB400202EB001204F5AC7070
:104CF00000EB82008783012140F28630005D00EBEB
:104D0000400202EB001204F5AC7000EB82008177E8
:104D100040F28630005D00EB400202EB001204F529
:104D2000AC7000EB8200C1770A235AA25146284694
:104D3000FFF748FD061E23D016F8010C303800EBB3
:104D4000400101EB001104F5AC7000EB810801207B
:104D500088F8000016F8010C303888F8010098F83F
:104D6000020048B160680A2801D100206060414615
:104D70002046FEF7C3FE03E041462046FFF73CFD18
:104D800047A1284602F05AF820B194F91B1449A013
:104D900002F032F9092350A251462846FFF712FDCE
:104DA000061E72D0B54270D0681C86426ED116F8CD
:104DB000010C303800EB400101EB001104F5AC7040
:104DC00000EB810090F8029016F8010C303800EBEF
:104DD000400101EB001104F5AC7010F821000090C7
:104DE00000BF002116F8010D303800EB400202EB45
:104DF000001204F5AC7000F822103078303800EB67
:104E0000400202EB001204F5AC7000EB82008170EE
:104E10003078303800EB400202EB001204F5AC7041
:104E200000EB820080F8491016F8010B303800EBD7
:104E3000400202EB001204F5AC7000EB820080F837
:104E4000481000BF0098F8B1B9F1000F0ED016F865
:104E5000010C303800EB400202EB001204F5AC709C
:104E600000EB82012046FEF782FE40E016F8010CBE
:104E7000303800EB400202EB001204F5AC7000EB9E
:104E800082012046FFF79CFC31E031E02AE000007F
:104E9000160F00202C434F4E4E4543540D0A000080
:104EA000414C524541445920434F4E4E4543544591
:104EB000440D0A00436F6E6E656374696F6E202542
:104EC0006420616C726561647920636F6E6E6563E6
:104ED000746564210D0A00002C434C4F5345440D6A
:104EE0000A000000711E0A22FE4801F0F3FD00BF17
:104EF000FDA1284601F0A2FF061E26D016F8010CDF
:104F0000303800EB400101EB001104F5AC7000EB10
:104F1000810800BF002088F8000088F8020088F8A7
:104F2000490088F8480000BF16F8010C303888F8AE
:104F3000010098F8020040B160680A2801D1002001
:104F4000606041462046FEF7E2FD60681E2878D288
:104F5000DFE800F0770F4D18FEA1AEFDB7FCCFFBE8
:104F60006477FAF9F8F7F63AF5F4788EF3F2F1F09F
:104F700077CEAFF2A851284601F085FF08B900208E
:104F8000606029E20722DCA1284601F0A0FF40B9B9
:104F9000DBA104F1080001F091FFE879303884F8D2
:104FA0001A04AFF2D851284601F06DFF08B900206D
:104FB0006060D3A1284601F066FF20B90020606040
:104FC0002046FEF751FD07E20B22CFA1284601F053
:104FD0007EFF18B929462046FFF7A6FBAFF2146101
:104FE000284601F050FF08B900206060F4E1072274
:104FF000C8A1284601F06BFF18B929462046FFF7E3
:10500000DAFAAFF23861284601F03DFF28B90020F6
:105010006060C2492046FEF754FDDDE10622C0A1D2
:10502000284601F054FF18B929462046FFF7E5F954
:10503000AFF26861284601F026FF08B900206060E1
:10504000CAE1C8E10722B8A1284601F040FF18B91B
:1050500029462046FFF7E2F8AFF29061284601F0BA
:1050600012FF20B9002060602046FEF713FDB3E177
:105070000622AFA1284601F02AFF18B9294620468A
:10508000FFF7CCF8AFF2BC61284601F0FCFE08B98E
:1050900000206060A0E1AFF2CC61284601F0F3FE91
:1050A00028B90020606094F8F80284F8F90293E1CE
:1050B000AFF2E861284601F0E6FE08B90020606022
:1050C0008AE1AFF2F861284601F0DDFE78B91D20D3
:1050D000606040F29140005D20F00100401C40F211
:1050E0009141085594A104F1080001F0E7FE73E135
:1050F00072E1AFF22871284601F0C5FE08B9002020
:105100006060AFF22471284601F0BDFEE8BB0020CC
:10511000606000BF002194F91B0400EB400202EB29
:10512000001204F5AC7000F8221094F91B0400EB97
:1051300040020EE037E143E0A0E089E03FE03DE0DF
:105140005AE039E03DE045E035E032E035E031E07D
:10515000AAE002EB001204F5AC7000EB8200817053
:1051600094F91B0400EB400202EB001204F5AC7052
:1051700000EB820080F8491094F91B0400EB400218
:1051800002EB001204F5AC7000E011E000EB8200CD
:1051900080F8481000BF94F91B0400EB400202EBBA
:1051A000001204F5AC7000EB82012046FEF7AFFC64
:1051B00012E100BF00BF00BF00BF00BF00BF00BFC3
:1051C00000BFAFF2F871284601F05DFE08B900207B
:1051D000606001E1AFF2F071284601F054FE50B971
:1051E0000020606040F29140005D20F00200801CD1
:1051F00040F291410855EFE028782B2806D1002194
:10520000681CFEF706FF4FF472710851AFF64401B7
:10521000284601F038FE50B900206060012184F872
:10522000CC1304F562712046FEF7F6FF0FE0AFF6EF
:105230005001284601F027FE48B900206060002197
:1052400084F8CC1304F562712046FEF7E5FFC3E055
:105250000A223BA1284601F03AFE30B9002204F5AB
:10526000387105F10C00FEF741FFAFF6A0012846AA
:1052700001F009FE08B900206060ADE0092233A109
:10528000284601F024FE30B9002204F2F22105F193
:105290000B00FEF72BFFAFF6CC01284601F0F3FD23
:1052A00008B90020606097E00B222BA1284601F08E
:1052B0000EFE70B9E87A303800F0FF09B9F1040F3A
:1052C00002D12848C4F8540149462046FEF7A3FFFE
:1052D00000BFAFF60811284601F0D5FD00B143E04C
:1052E00048E00000E00500202C434F4E4E4543545B
:1052F000204641494C0D0A002B43574A41503A0081
:105300004641494C0D0A00002B43574A41505F4328
:1053100055523A002B43574C41503A00080C00209C
:105320002B435753415000002B43495053544100E5
:105330002B4349504150000053454E44204F4B00F1
:105340002B4349505354414D414300002B43495096
:1053500041504D41430000002B43495055504441BA
:1053600054453A00E0930400AFF68411284601F05A
:105370008AFD40B90020606047F23050C4F8540103
:105380002046FEF747FFAFF6A811284601F07BFD47
:1053900040B90020606047F23050C4F85401204604
:1053A000FEF737FF18E02878302806DB2878392800
:1053B00003DC29462046FEF701FFAFF6F011284630
:1053C00001F061FD30B90020606004F21C4120460C
:1053D000FEF741FE00E000BF00BFAFF610212846F7
:1053E00001F051FD68B940F29140005D20F00200EB
:1053F000801C40F2914108556068082801D00020C7
:105400006060AFF62421284601F03DFD28B1AFF6DB
:105410002021284601F037FD48B940F29140005D57
:1054200020F0020140F29140015500206060AFF68B
:105430005C21284601F027FD48B90020606040F259
:105440009140005D20F0010140F29140015500BF04
:10545000FFF7EFB970B50446D4F88C6440F2914080
:10546000005D20F0010140F2914001551D20606077
:10547000B06901F001FD85B240F2FE70854200DDA9
:105480000546002D08DD2946B06901F0A0FCD4F8DE
:1054900088042844C4F888040221FEA001F097FC87
:1054A00070BD70472DE9F041C2B00446D4F85401F4
:1054B00018B947F23050C4F85401D4F84811D4F860
:1054C0004C01401AD4F85411884241D92779002060
:1054D00060600A2F3CD100BF002194F91B0400EB4F
:1054E000400202EB001204F5AC7000F8221094F9AF
:1054F0001B0400EB400202EB001204F5AC7000EB61
:105500008200817094F91B0400EB400202EB001250
:1055100004F5AC7000EB820080F8491094F91B048C
:1055200000EB400202EB001204F5AC7000EB8200CD
:1055300080F8481000BF94F91B0400EB400202EB16
:10554000001204F5AC7000EB82012046FEF72AFB46
:1055500040F29140005D00F0010000B30222CEA1B4
:10556000CE4801F06AFB051E06DB95B902226946AA
:10557000CA4801F0E0FA0CE00022C7A1C84801F0D7
:105580005CFB051E05DB25B902226946C44801F013
:10559000D2FA002D02DB2046FFF75CFF00BF6068F7
:1055A000112817D194F88003A0B90322BDA1BB48EC
:1055B00001F043FB00280DDBB84801F00EFB002092
:1055C000606040F29140005D20F00200801C40F2DB
:1055D0009141085509E002A9B3A001F00DFD434631
:1055E000012202A92046FFF710F994F8800340B980
:1055F0004FF4807202A9A94801F07DFBB0F10008C8
:10560000E9DC05E04346002202A92046FFF7FDF849
:1056100094F8800350B9606840B94FF4807202A9D1
:105620009F4801F068FBB0F10008EBDC94F88003C0
:1056300000287CD040F28730005D08B1974D00E033
:10564000974D25E0012201A9284601F074FA9DF842
:10565000041040F28630005D00EB400202EB0012C5
:1056600004F5AC7000EB8200826940F28230005B8E
:10567000115440F28230005B401C81B240F2823013
:105680000153801C005B401C81B24FF461700153D8
:1056900040F28230015B001D005D00EB400202EB36
:1056A000001204F5AC7000EB8200C068814204D2A5
:1056B000284601F07EFA0028C4DC4FF46170015BDB
:1056C000801C005D00EB400202EB001204F5AC70A0
:1056D00000EB8200C06881425DD3002084F8800323
:1056E00040F28230015B001D005D00EB400202EBE6
:1056F000001204F5AC7000EB82008183012140F2BE
:105700008630005D00EB400202EB001204F5AC7045
:1057100000EB8200817740F28630005D00EB4001B3
:1057200001EB001104F5AC7000EB810000E033E008
:1057300090F8490008B340F28631095D01EB41025F
:1057400002EB011204F5AC7101EB820188695BA1E7
:1057500001F074FB061E10D0103600213046FEF713
:1057600058FC40F28631095D01EB410202EB011267
:1057700004F5AC7101EB82010862012140F2863030
:10578000005D00EB400202EB001204F5AC7000EB90
:105790008200C17700BF00BF2046FEF739FC00BF82
:1057A000002084F8940442B0BDE8F08110B50446AE
:1057B00000BF40F29140005D00F0010078B102228C
:1057C00035A1364801F039FA002808DB40F2914053
:1057D000005D20F0010140F29140015505E02046B6
:1057E000FFF760FE60680028E3D100BF00BF002023
:1057F00084F8940410BD2DE9F04104460D46164688
:105800001F4600BF606840B12046FFF74BFE00BF57
:10581000072084F89404BDE8F08100BF112D02D167
:105820001E4801F0DAF9304601F026FB1FFA80F835
:105830004146304601F0CBFA6560002020723946BF
:1058400004F1080001F03AFBD4F84C01C4F8480117
:1058500000BF002084F8940400BFDCE710B50446C4
:105860001BA31EA217212046FFF7C5FF94F894043E
:1058700078B904F59264207820F010002070207828
:1058800020F020002070207820F040002070A4F547
:1058900092642BE05C3000003E200000F405002004
:1058A000E00500204F4B0D00526563656976656425
:1058B000203A202573200D0A00000000436F6E740B
:1058C000656E742D4C656E6774683A2000000000A8
:1058D0002B43495041505F435552000041542B43E4
:1058E000495041505F4355523F0D0A0094F89404CB
:1058F00010BD10B50446AFF2AC53FDA219212046ED
:10590000FFF779FF94F8940428B994F8900420F0F4
:10591000800084F8900494F8940410BD10B50446F7
:10592000AFF2E453F6A218212046FFF764FF94F883
:10593000940428B994F8900420F0080084F89004A6
:1059400094F8940410BD30B589B004460D462A463B
:10595000EFA101A801F060FBF2A301AA07212046F4
:10596000FFF749FF18B194F8940409B030BD204600
:10597000FFF71CFF40F29140005DC0F3400020B9EA
:1059800000BF012084F89404EFE700BF002084F8F2
:10599000940400BFE9E730B589B004460D462A46B5
:1059A000E3A101A801F038FBE5A301AA0B212046E1
:1059B000FFF721FF18B194F8940409B030BD2046D8
:1059C000FFF7F4FE40F29140005DC0F3400020B9C3
:1059D00000BF012084F89404EFE700BF002084F8A2
:1059E000940400BFE9E77CB504460E460020C4F8E5
:1059F0005401D64A4FF40071D54801F039F820B16E
:105A000000BF052084F894047CBDD24A4FF4806125
:105A1000D14801F02DF820B100BF052084F894048E
:105A2000F2E70020012103460A46CDE90010CB48E9
:105A3000FDF76EF84FF48030C8498861642000F0AB
:105A4000F0FF0120C5498861642000F0EAFF26606C
:105A5000206801F0B3F94FF47A70C4F85401C04BD8
:105A6000C0A20F212046FFF7C6FE2046FFF79EFE8C
:105A700040F29140005DC0F3400008BB00251CE0EF
:105A8000206801F09BF94FF47A70C4F85401B44BCC
:105A9000B4A20F212046FFF7AEFE2046FFF786FE98
:105AA00040F29140005DC0F3400020B1B04850F892
:105AB0002500206003E0681CC5B2042DE0D300BFC0
:105AC00040F29140005DC0F3400020B900BF0220C9
:105AD00084F8940498E747F23050C4F85401A04B7E
